:1003E300852108852209E509B522F5E508B521F03F
:0403F300AE08AF0998
:0103F70022E3
:10034B00E4F521F5225389F0438901C28CC28D75E6
:0E035B008C3C758AC6D2B9D28CD2A9D2AF2200
:03000B000203B637
:1003B600C0E0C28C758C3C758AC6D28C0522E522BB
:0703C60070020521D0E032B6
:1001F70075280FC281C2807F3012022812047E7FC9
:100207003012022812047E7F3012022812047E7FE9
:100217002012022812047E1204AF7F647E000203BC
:010227000CCA
:1002EA00ED700674802FFF8016BD010674C02FFFC3
:1002FA00800DBD020674902FFF800474D02FFF0278
:02030A00036985
:0E04CD005328FC300003432803AF28020369C4
:1003CD008B251202EAE525C4540FFF12049FE52583
:0603DD00540FFF02049F13
:10040D008A198B1A1202EAA2029203AD1BAF1AAE21
:04041D001902008E32
:10048F008B0A1202EAA2009201AD0BAF0A02016CB5
:0A0500008B081202EAAF08020003A4
:10045B008B088A09890A1202EAAB08AA09A90A02BF
:02046B0002A0ED
:1002A0008B0B8A0C890DAB0BAA0CA90D12000E60EA
:1002B00013050DE50D7002050C14F912000EFF1266
:0502C000000380E222B2
:10046D008E238F24E523FF120435AF24E5240204E7
:01047D003549
:100435008F26E526C4540FFF12049FE526540FFFAF
:0304450002049F0F
:06008E008E118F128D138C
:10009400E5136065751500751601E4FBE51314FF9F
:1000A400EBC39F5012AE15AF167C007D0A120027D9
:1000B4008E158F160B80E5AC15AD16AE11AF12126E
:1000C40000398F14200311E514700DE513640160E9
:1000D400077F201200038007AF1412049FD203AFDE
:1000E400147E00AC15AD16120027C3E5129FF5125D
:0900F400E5119EF511151380972A
:0100FD0022E0
:04016C008F0C8D0D5A
:10017000E50D604B750F01E4FFE50D14FEEFC39E26
:10018000500BE50F75F00AA4F50F0F80ECE50C8518
:100190000FF084F50E20010F700DE50D640160076E
:1001A0007F201200038007AF0E12049FD201E50EDC
:0F01B000850FF0A4FFC3E50C9FF50C150D80B172
:0101BF00221D
:10049F0074302FFFD39439400474072FFF020003E9
:0300030002038372
:1002C500E4F509AD09E4FF1202EAE4F5087F20121E
:1002D50000030508E508C3941040F20509E509C3C4
:0402E500940240DF60
:0102E90022F2
:02039D00AD07AA
:10039F00E4FF1202EAE4F5277F201200030527E5A8
:0603AF0027C3941040F288
:0103B5002225
:0C04E8003004047F1480027F10020369BE
:0F04AF007F28120369AF281203697F01020369D6
:100369008F0C120228C28012047EE50CC454F0F5E9
:0A0379000CFF120228C28002047E6D
:100383008F10120228D28012047EE510C454F0F5B7
:0A03930010FF120228D28002047E3F
:10047E00D281E4FF0FBF08FCC281E4FF0FBF08FC6E
:01048E00224B
:10022800EF30E703D38001C39285EF30E603D38034
:1002380001C39284EF30E503D38001C39283EF308A
:09024800E403D38001C392822279
:10030C00E4FDFCC3ED9FEC9E5015E4FBFA0BBB0027
:0F031C00010AEB64A04A70F50DBD00010C80E4EE
:01032B0022AF
:100421004E6F772054656D706572617475726500E9
:04043100430046003E
:1000FE0012034B1201F7120006C2001204CD1202B7
:10010E00C5120251E4F51FE51F1460120470F812B7
:10011E0004DB1203E38E1C8F1D751F0180E9120391
:10012E00E3C3EF951DFFEE951CFEC3EF9406EE9410
:10013E000040D41201C08F1E750B02C200AB1E7D93
:10014E0001E4FF12048FAF1E120448AB07750B03B8
:0E015E00C2007D017F0B12048FE4F51F80A903
:100448007E007C007D091200277D0512003974208A
:020458002FFF74
:01045A00227F
:100251007BFF7A047921E4FDFF12045B7BDF7D01E2
:100261007F021205007F431200037BDF7D017F0EB9
:080271001205007F46020003A4
:03000600D2B7224C
:0D04DB001203F87FCC1202797F44020279EF
:1001C000E4F508FF1203F87FCC1202797FBE120219
:1001D000797FFF1202798F087FFF120279E508C448
:1001E000540FF508EFC454F02508F508C3945040A7
:0601F00003E4F508AF086E
:0101F60022E6
:020279008F09EB
:10027B00E4F50AE50913920112032C9200E509C378
:10028B0013F509300003430980050AE50AC39408F6
:04029B0040E1AF0986
:01029F00223C
:10032C00C2B700000000A20192B70000000000005C
:0E033C00A2B79201E4FF0FBF0CFCD2B7A201E2
:01034A002290
:1003F800C2B77F461204BED2B77F031204BE20B72D
:05040800FD30B7FD22EC
:0F04BE00EF600B00000000000000001F80F22222
:030000000204F403
:0C04F400787FE4F6D8FD7581280200FE38
:10000E00BB010689828A83E0225002E722BBFE02F0
:09001E00E32289828A83E4932223
:10002700EF8DF0A4A8F0CF8CF0A428CE8DF0A42EED
:02003700FE22A7
:10003900BC000BBE0029EF8DF084FFADF022E4CCAB
:10004900F875F008EF2FFFEE33FEEC33FCEE9DEC74
:10005900984005FCEE9DFE0FD5F0E9E4CEFD22EDBA
:10006900F8F5F0EE8420D21CFEADF075F008EF2F04
:10007900FFED33FD4007985006D5F0F222C398FDF5
:050089000FD5F0EA2292
:00000001FF
